{
  "abi": [
    {
      "inputs": [
        {
          "internalType": "address",
          "name": "_factory",
          "type": "address"
        },
        {
          "internalType": "address",
          "name": "_WETH",
          "type": "address"
        }
      ],
      "stateMutability": "nonpayable",
      "type": "constructor"
    },
    {
      "inputs": [],
      "name": "WETH",
      "outputs": [
        {
          "internalType": "address",
          "name": "",
          "type": "address"
        }
      ],
      "stateMutability": "view",
      "type": "function"
    },
    {
      "inputs": [
        {
          "internalType": "address",
          "name": "tokenA",
          "type": "address"
        },
        {
          "internalType": "address",
          "name": "tokenB",
          "type": "address"
        },
        {
          "internalType": "uint256",
          "name": "amountADesired",
          "type": "uint256"
        },
        {
          "internalType": "uint256",
          "name": "amountBDesired",
          "type": "uint256"
        },
        {
          "internalType": "uint256",
          "name": "amountAMin",
          "type": "uint256"
        },
        {
          "internalType": "uint256",
          "name": "amountBMin",
          "type": "uint256"
        },
        {
          "internalType": "address",
          "name": "to",
          "type": "address"
        },
        {
          "internalType": "uint256",
          "name": "deadline",
          "type": "uint256"
        }
      ],
      "name": "addLiquidity",
      "outputs": [
        {
          "internalType": "uint256",
          "name": "amountA",
          "type": "uint256"
        },
        {
          "internalType": "uint256",
          "name": "amountB",
          "type": "uint256"
        },
        {
          "internalType": "uint256",
          "name": "liquidity",
          "type": "uint256"
        }
      ],
      "stateMutability": "nonpayable",
      "type": "function"
    },
    {
      "inputs": [
        {
          "internalType": "address",
          "name": "token",
          "type": "address"
        },
        {
          "internalType": "uint256",
          "name": "amountTokenDesired",
          "type": "uint256"
        },
        {
          "internalType": "uint256",
          "name": "amountTokenMin",
          "type": "uint256"
        },
        {
          "internalType": "uint256",
          "name": "amountETHMin",
          "type": "uint256"
        },
        {
          "internalType": "address",
          "name": "to",
          "type": "address"
        },
        {
          "internalType": "uint256",
          "name": "deadline",
          "type": "uint256"
        }
      ],
      "name": "addLiquidityETH",
      "outputs": [
        {
          "internalType": "uint256",
          "name": "amountToken",
          "type": "uint256"
        },
        {
          "internalType": "uint256",
          "name": "amountETH",
          "type": "uint256"
        },
        {
          "internalType": "uint256",
          "name": "liquidity",
          "type": "uint256"
        }
      ],
      "stateMutability": "payable",
      "type": "function"
    },
    {
      "inputs": [],
      "name": "factory",
      "outputs": [
        {
          "internalType": "address",
          "name": "",
          "type": "address"
        }
      ],
      "stateMutability": "view",
      "type": "function"
    },
    {
      "inputs": [
        {
          "internalType": "uint256",
          "name": "amountOut",
          "type": "uint256"
        },
        {
          "internalType": "uint256",
          "name": "reserveIn",
          "type": "uint256"
        },
        {
          "internalType": "uint256",
          "name": "reserveOut",
          "type": "uint256"
        },
        {
          "internalType": "address[2]",
          "name": "path",
          "type": "address[2]"
        }
      ],
      "name": "getAmountIn",
      "outputs": [
        {
          "internalType": "uint256",
          "name": "amountIn",
          "type": "uint256"
        }
      ],
      "stateMutability": "view",
      "type": "function"
    },
    {
      "inputs": [
        {
          "internalType": "uint256",
          "name": "amountIn",
          "type": "uint256"
        },
        {
          "internalType": "uint256",
          "name": "reserveIn",
          "type": "uint256"
        },
        {
          "internalType": "uint256",
          "name": "reserveOut",
          "type": "uint256"
        },
        {
          "internalType": "address[2]",
          "name": "path",
          "type": "address[2]"
        }
      ],
      "name": "getAmountOut",
      "outputs": [
        {
          "internalType": "uint256",
          "name": "amountOut",
          "type": "uint256"
        }
      ],
      "stateMutability": "view",
      "type": "function"
    },
    {
      "inputs": [
        {
          "internalType": "uint256",
          "name": "amountOut",
          "type": "uint256"
        },
        {
          "internalType": "address[]",
          "name": "path",
          "type": "address[]"
        }
      ],
      "name": "getAmountsIn",
      "outputs": [
        {
          "internalType": "uint256[]",
          "name": "amounts",
          "type": "uint256[]"
        }
      ],
      "stateMutability": "view",
      "type": "function"
    },
    {
      "inputs": [
        {
          "internalType": "uint256",
          "name": "amountIn",
          "type": "uint256"
        },
        {
          "internalType": "address[]",
          "name": "path",
          "type": "address[]"
        }
      ],
      "name": "getAmountsOut",
      "outputs": [
        {
          "internalType": "uint256[]",
          "name": "amounts",
          "type": "uint256[]"
        }
      ],
      "stateMutability": "view",
      "type": "function"
    },
    {
      "inputs": [
        {
          "internalType": "uint256",
          "name": "amountA",
          "type": "uint256"
        },
        {
          "internalType": "uint256",
          "name": "reserveA",
          "type": "uint256"
        },
        {
          "internalType": "uint256",
          "name": "reserveB",
          "type": "uint256"
        }
      ],
      "name": "quote",
      "outputs": [
        {
          "internalType": "uint256",
          "name": "amountB",
          "type": "uint256"
        }
      ],
      "stateMutability": "pure",
      "type": "function"
    },
    {
      "inputs": [
        {
          "internalType": "address",
          "name": "tokenA",
          "type": "address"
        },
        {
          "internalType": "address",
          "name": "tokenB",
          "type": "address"
        },
        {
          "internalType": "uint256",
          "name": "liquidity",
          "type": "uint256"
        },
        {
          "internalType": "uint256",
          "name": "amountAMin",
          "type": "uint256"
        },
        {
          "internalType": "uint256",
          "name": "amountBMin",
          "type": "uint256"
        },
        {
          "internalType": "address",
          "name": "to",
          "type": "address"
        },
        {
          "internalType": "uint256",
          "name": "deadline",
          "type": "uint256"
        }
      ],
      "name": "removeLiquidity",
      "outputs": [
        {
          "internalType": "uint256",
          "name": "amountA",
          "type": "uint256"
        },
        {
          "internalType": "uint256",
          "name": "amountB",
          "type": "uint256"
        }
      ],
      "stateMutability": "nonpayable",
      "type": "function"
    },
    {
      "inputs": [
        {
          "internalType": "address",
          "name": "token",
          "type": "address"
        },
        {
          "internalType": "uint256",
          "name": "liquidity",
          "type": "uint256"
        },
        {
          "internalType": "uint256",
          "name": "amountTokenMin",
          "type": "uint256"
        },
        {
          "internalType": "uint256",
          "name": "amountETHMin",
          "type": "uint256"
        },
        {
          "internalType": "address",
          "name": "to",
          "type": "address"
        },
        {
          "internalType": "uint256",
          "name": "deadline",
          "type": "uint256"
        }
      ],
      "name": "removeLiquidityETH",
      "outputs": [
        {
          "internalType": "uint256",
          "name": "amountToken",
          "type": "uint256"
        },
        {
          "internalType": "uint256",
          "name": "amountETH",
          "type": "uint256"
        }
      ],
      "stateMutability": "nonpayable",
      "type": "function"
    },
    {
      "inputs": [
        {
          "internalType": "address",
          "name": "token",
          "type": "address"
        },
        {
          "internalType": "uint256",
          "name": "liquidity",
          "type": "uint256"
        },
        {
          "internalType": "uint256",
          "name": "amountTokenMin",
          "type": "uint256"
        },
        {
          "internalType": "uint256",
          "name": "amountETHMin",
          "type": "uint256"
        },
        {
          "internalType": "address",
          "name": "to",
          "type": "address"
        },
        {
          "internalType": "uint256",
          "name": "deadline",
          "type": "uint256"
        },
        {
          "internalType": "bool",
          "name": "approveMax",
          "type": "bool"
        },
        {
          "internalType": "uint8",
          "name": "v",
          "type": "uint8"
        },
        {
          "internalType": "bytes32",
          "name": "r",
          "type": "bytes32"
        },
        {
          "internalType": "bytes32",
          "name": "s",
          "type": "bytes32"
        }
      ],
      "name": "removeLiquidityETHWithPermit",
      "outputs": [
        {
          "internalType": "uint256",
          "name": "amountToken",
          "type": "uint256"
        },
        {
          "internalType": "uint256",
          "name": "amountETH",
          "type": "uint256"
        }
      ],
      "stateMutability": "nonpayable",
      "type": "function"
    },
    {
      "inputs": [
        {
          "internalType": "address",
          "name": "tokenA",
          "type": "address"
        },
        {
          "internalType": "address",
          "name": "tokenB",
          "type": "address"
        },
        {
          "internalType": "uint256",
          "name": "liquidity",
          "type": "uint256"
        },
        {
          "internalType": "uint256",
          "name": "amountAMin",
          "type": "uint256"
        },
        {
          "internalType": "uint256",
          "name": "amountBMin",
          "type": "uint256"
        },
        {
          "internalType": "address",
          "name": "to",
          "type": "address"
        },
        {
          "internalType": "uint256",
          "name": "deadline",
          "type": "uint256"
        },
        {
          "internalType": "bool",
          "name": "approveMax",
          "type": "bool"
        },
        {
          "internalType": "uint8",
          "name": "v",
          "type": "uint8"
        },
        {
          "internalType": "bytes32",
          "name": "r",
          "type": "bytes32"
        },
        {
          "internalType": "bytes32",
          "name": "s",
          "type": "bytes32"
        }
      ],
      "name": "removeLiquidityWithPermit",
      "outputs": [
        {
          "internalType": "uint256",
          "name": "amountA",
          "type": "uint256"
        },
        {
          "internalType": "uint256",
          "name": "amountB",
          "type": "uint256"
        }
      ],
      "stateMutability": "nonpayable",
      "type": "function"
    },
    {
      "inputs": [
        {
          "internalType": "uint256",
          "name": "amountOut",
          "type": "uint256"
        },
        {
          "internalType": "address[]",
          "name": "path",
          "type": "address[]"
        },
        {
          "internalType": "address",
          "name": "to",
          "type": "address"
        },
        {
          "internalType": "uint256",
          "name": "deadline",
          "type": "uint256"
        }
      ],
      "name": "swapETHForExactTokens",
      "outputs": [
        {
          "internalType": "uint256[]",
          "name": "amounts",
          "type": "uint256[]"
        }
      ],
      "stateMutability": "payable",
      "type": "function"
    },
    {
      "inputs": [
        {
          "internalType": "uint256",
          "name": "amountOutMin",
          "type": "uint256"
        },
        {
          "internalType": "address[]",
          "name": "path",
          "type": "address[]"
        },
        {
          "internalType": "address",
          "name": "to",
          "type": "address"
        },
        {
          "internalType": "uint256",
          "name": "deadline",
          "type": "uint256"
        }
      ],
      "name": "swapExactETHForTokens",
      "outputs": [
        {
          "internalType": "uint256[]",
          "name": "amounts",
          "type": "uint256[]"
        }
      ],
      "stateMutability": "payable",
      "type": "function"
    },
    {
      "inputs": [
        {
          "internalType": "uint256",
          "name": "amountIn",
          "type": "uint256"
        },
        {
          "internalType": "uint256",
          "name": "amountOutMin",
          "type": "uint256"
        },
        {
          "internalType": "address[]",
          "name": "path",
          "type": "address[]"
        },
        {
          "internalType": "address",
          "name": "to",
          "type": "address"
        },
        {
          "internalType": "uint256",
          "name": "deadline",
          "type": "uint256"
        }
      ],
      "name": "swapExactTokensForETH",
      "outputs": [
        {
          "internalType": "uint256[]",
          "name": "amounts",
          "type": "uint256[]"
        }
      ],
      "stateMutability": "nonpayable",
      "type": "function"
    },
    {
      "inputs": [
        {
          "internalType": "uint256",
          "name": "amountIn",
          "type": "uint256"
        },
        {
          "internalType": "uint256",
          "name": "amountOutMin",
          "type": "uint256"
        },
        {
          "internalType": "address[]",
          "name": "path",
          "type": "address[]"
        },
        {
          "internalType": "address",
          "name": "to",
          "type": "address"
        },
        {
          "internalType": "uint256",
          "name": "deadline",
          "type": "uint256"
        }
      ],
      "name": "swapExactTokensForTokens",
      "outputs": [
        {
          "internalType": "uint256[]",
          "name": "amounts",
          "type": "uint256[]"
        }
      ],
      "stateMutability": "nonpayable",
      "type": "function"
    },
    {
      "inputs": [
        {
          "internalType": "uint256",
          "name": "amountOut",
          "type": "uint256"
        },
        {
          "internalType": "uint256",
          "name": "amountInMax",
          "type": "uint256"
        },
        {
          "internalType": "address[]",
          "name": "path",
          "type": "address[]"
        },
        {
          "internalType": "address",
          "name": "to",
          "type": "address"
        },
        {
          "internalType": "uint256",
          "name": "deadline",
          "type": "uint256"
        }
      ],
      "name": "swapTokensForExactETH",
      "outputs": [
        {
          "internalType": "uint256[]",
          "name": "amounts",
          "type": "uint256[]"
        }
      ],
      "stateMutability": "nonpayable",
      "type": "function"
    },
    {
      "inputs": [
        {
          "internalType": "uint256",
          "name": "amountOut",
          "type": "uint256"
        },
        {
          "internalType": "uint256",
          "name": "amountInMax",
          "type": "uint256"
        },
        {
          "internalType": "address[]",
          "name": "path",
          "type": "address[]"
        },
        {
          "internalType": "address",
          "name": "to",
          "type": "address"
        },
        {
          "internalType": "uint256",
          "name": "deadline",
          "type": "uint256"
        }
      ],
      "name": "swapTokensForExactTokens",
      "outputs": [
        {
          "internalType": "uint256[]",
          "name": "amounts",
          "type": "uint256[]"
        }
      ],
      "stateMutability": "nonpayable",
      "type": "function"
    },
    {
      "stateMutability": "payable",
      "type": "receive"
    }
  ],
  "bytecode": {
    "object": "0x60c06040523480156200001157600080fd5b5060405162005da438038062005da4833981016040819052620000349162000069565b6001600160a01b039182166080521660a052620000a1565b80516001600160a01b03811681146200006457600080fd5b919050565b600080604083850312156200007d57600080fd5b62000088836200004c565b915062000098602084016200004c565b90509250929050565b60805160a051615bc5620001df60003960008181610128015281816102b601528181610458015281816104a70152818161054e0152818161077101528181610aa801528181610c1601528181610d3401528181610dc20152818161122101528181611512015281816115680152818161159c015281816116310152818161176a0152818161187c015261190a015260008181610342015281816105ca0152818161069c015281816108570152818161088e0152818161098501528181610b2401528181610bc301528181610c9101528181610df401528181610f5a0152818161102f015281816111cf015281816111ff01528181611328015281816114c101528181611546015281816117e50152818161193c0152818161215b015281816121ab015281816127ab0152818161284d01526128c40152615bc56000f3fe6080604052600436106101185760003560e01c8063ad5c4648116100a0578063ded9382a11610064578063ded9382a14610384578063e8e33700146103a4578063eb2a969c146103df578063f305d719146103ff578063fb3bdb411461041257600080fd5b8063ad5c4648146102a4578063ad615dec146102f0578063baa2abde14610310578063c45a015514610330578063d06ca61f1461036457600080fd5b806338ed1739116100e757806338ed1739146102035780634a25d94a14610223578063751fd4c5146102435780637ff36ab5146102715780638803dbee1461028457600080fd5b806302751cec1461015c57806318cbafe5146101965780631f00ca74146101c35780632195995c146101e357600080fd5b3661015757336001600160a01b037f0000000000000000000000000000000000000000000000000000000000000000161461015557610155612bdd565b005b600080fd5b34801561016857600080fd5b5061017c610177366004612c0b565b610425565b604080519283526020830191909152015b60405180910390f35b3480156101a257600080fd5b506101b66101b1366004612cae565b610521565b60405161018d9190612d21565b3480156101cf57600080fd5b506101b66101de366004612dac565b610850565b3480156101ef57600080fd5b5061017c6101fe366004612e8e565b610884565b34801561020f57600080fd5b506101b661021e366004612cae565b61095d565b34801561022f57600080fd5b506101b661023e366004612cae565b610a7b565b34801561024f57600080fd5b5061026361025e366004612f38565b610bb9565b60405190815260200161018d565b6101b661027f366004612fdd565b610bf1565b34801561029057600080fd5b506101b661029f366004612cae565b610f32565b3480156102b057600080fd5b506102d87f000000000000000000000000000000000000000000000000000000000000000081565b6040516001600160a01b03909116815260200161018d565b3480156102fc57600080fd5b5061026361030b366004613044565b610fef565b34801561031c57600080fd5b5061017c61032b366004613070565b611004565b34801561033c57600080fd5b506102d87f000000000000000000000000000000000000000000000000000000000000000081565b34801561037057600080fd5b506101b661037f366004612dac565b6111c8565b34801561039057600080fd5b5061017c61039f3660046130e2565b6111f5565b3480156103b057600080fd5b506103c46103bf366004613178565b6112e8565b6040805193845260208401929092529082015260600161018d565b3480156103eb57600080fd5b506102636103fa366004612f38565b6114b7565b6103c461040d366004612c0b565b6114e6565b6101b6610420366004612fdd565b611745565b60008082428110156104525760405162461bcd60e51b8152600401610449906131f4565b60405180910390fd5b610481897f00000000000000000000000000000000000000000000000000000000000000008a8a8a308a611004565b9093509150610491898685611a94565b604051632e1a7d4d60e01b8152600481018390527f00000000000000000000000000000000000000000000000000000000000000006001600160a01b031690632e1a7d4d90602401600060405180830381600087803b1580156104f357600080fd5b505af1158015610507573d6000803e3d6000fd5b505050506105158583611baf565b50965096945050505050565b606081428110156105445760405162461bcd60e51b8152600401610449906131f4565b6001600160a01b037f000000000000000000000000000000000000000000000000000000000000000016868661057b600182613241565b81811061058a5761058a613258565b905060200201602081019061059f919061326e565b6001600160a01b0316146105c55760405162461bcd60e51b81526004016104499061328b565b6106237f000000000000000000000000000000000000000000000000000000000000000089888880806020026020016040519081016040528093929190818152602001838360200280828437600092019190915250611c7d92505050565b91508682600184516106359190613241565b8151811061064557610645613258565b6020026020010151101561066b5760405162461bcd60e51b8152600401610449906132c2565b6107308686600081811061068157610681613258565b9050602002016020810190610696919061326e565b336107107f00000000000000000000000000000000000000000000000000000000000000008a8a60008181106106ce576106ce613258565b90506020020160208101906106e3919061326e565b8b8b60018181106106f6576106f6613258565b905060200201602081019061070b919061326e565b611e80565b8560008151811061072357610723613258565b6020026020010151611f4c565b61076f82878780806020026020016040519081016040528093929190818152602001838360200280828437600092019190915250309250612078915050565b7f00000000000000000000000000000000000000000000000000000000000000006001600160a01b0316632e1a7d4d83600185516107ad9190613241565b815181106107bd576107bd613258565b60200260200101516040518263ffffffff1660e01b81526004016107e391815260200190565b600060405180830381600087803b1580156107fd57600080fd5b505af1158015610811573d6000803e3d6000fd5b505050506108458483600185516108289190613241565b8151811061083857610838613258565b6020026020010151611baf565b509695505050505050565b606061087d7f00000000000000000000000000000000000000000000000000000000000000008484612280565b9392505050565b60008060006108b47f00000000000000000000000000000000000000000000000000000000000000008f8f611e80565b90506000876108c3578c6108c7565b6000195b60405163d505accf60e01b81529091506001600160a01b0383169063d505accf90610902903390309086908f908e908e908e9060040161330d565b600060405180830381600087803b15801561091c57600080fd5b505af1158015610930573d6000803e3d6000fd5b505050506109438f8f8f8f8f8f8f611004565b809450819550505050509b509b9950505050505050505050565b606081428110156109805760405162461bcd60e51b8152600401610449906131f4565b6109de7f000000000000000000000000000000000000000000000000000000000000000089888880806020026020016040519081016040528093929190818152602001838360200280828437600092019190915250611c7d92505050565b91508682600184516109f09190613241565b81518110610a0057610a00613258565b60200260200101511015610a265760405162461bcd60e51b8152600401610449906132c2565b610a3c8686600081811061068157610681613258565b61084582878780806020026020016040519081016040528093929190818152602001838360200280828437600092019190915250899250612078915050565b60608142811015610a9e5760405162461bcd60e51b8152600401610449906131f4565b6001600160a01b037f0000000000000000000000000000000000000000000000000000000000000000168686610ad5600182613241565b818110610ae457610ae4613258565b9050602002016020810190610af9919061326e565b6001600160a01b031614610b1f5760405162461bcd60e51b81526004016104499061328b565b610b7d7f00000000000000000000000000000000000000000000000000000000000000008988888080602002602001604051908101604052809392919081815260200183836020028082843760009201919091525061228092505050565b91508682600081518110610b9357610b93613258565b6020026020010151111561066b5760405162461bcd60e51b81526004016104499061334e565b6000610be88585857f000000000000000000000000000000000000000000000000000000000000000086612479565b95945050505050565b60608142811015610c145760405162461bcd60e51b8152600401610449906131f4565b7f00000000000000000000000000000000000000000000000000000000000000006001600160a01b031686866000818110610c5157610c51613258565b9050602002016020810190610c66919061326e565b6001600160a01b031614610c8c5760405162461bcd60e51b81526004016104499061328b565b610cea7f000000000000000000000000000000000000000000000000000000000000000034888880806020026020016040519081016040528093929190818152602001838360200280828437600092019190915250611c7d92505050565b9150868260018451610cfc9190613241565b81518110610d0c57610d0c613258565b60200260200101511015610d325760405162461bcd60e51b8152600401610449906132c2565b7f00000000000000000000000000000000000000000000000000000000000000006001600160a01b031663d0e30db083600081518110610d7457610d74613258565b60200260200101516040518263ffffffff1660e01b81526004016000604051808303818588803b158015610da757600080fd5b505af1158015610dbb573d6000803e3d6000fd5b50505050507f00000000000000000000000000000000000000000000000000000000000000006001600160a01b031663a9059cbb610e4e7f000000000000000000000000000000000000000000000000000000000000000089896000818110610e2657610e26613258565b9050602002016020810190610e3b919061326e565b8a8a60018181106106f6576106f6613258565b84600081518110610e6157610e61613258565b60200260200101516040518363ffffffff1660e01b8152600401610e9a9291906001600160a01b03929092168252602082015260400190565b6020604051808303816000875af1158015610eb9573d6000803e3d6000fd5b505050506040513d601f19601f82011682018060405250810190610edd9190613395565b610ee957610ee9612bdd565b610f2882878780806020026020016040519081016040528093929190818152602001838360200280828437600092019190915250899250612078915050565b5095945050505050565b60608142811015610f555760405162461bcd60e51b8152600401610449906131f4565b610fb37f00000000000000000000000000000000000000000000000000000000000000008988888080602002602001604051908101604052809392919081815260200183836020028082843760009201919091525061228092505050565b91508682600081518110610fc957610fc9613258565b60200260200101511115610a265760405162461bcd60e51b81526004016104499061334e565b6000610ffc8484846125e6565b949350505050565b60008082428110156110285760405162461bcd60e51b8152600401610449906131f4565b60006110557f00000000000000000000000000000000000000000000000000000000000000008c8c611e80565b6040516323b872dd60e01b81529091506001600160a01b038216906323b872dd9061108890339085908e906004016133b2565b6020604051808303816000875af11580156110a7573d6000803e3d6000fd5b505050506040513d601f19601f820116820180604052508101906110cb9190613395565b5060405163226bf2d160e21b81526001600160a01b03878116600483015260009182918416906389afcb449060240160408051808303816000875af1158015611118573d6000803e3d6000fd5b505050506040513d601f19601f8201168201806040525081019061113c91906133d6565b91509150600061114c8e8e612686565b509050806001600160a01b03168e6001600160a01b03161461116f578183611172565b82825b90975095508a8710156111975760405162461bcd60e51b8152600401610449906133fa565b898610156111b75760405162461bcd60e51b815260040161044990613440565b505050505097509795505050505050565b606061087d7f00000000000000000000000000000000000000000000000000000000000000008484611c7d565b60008060006112457f00000000000000000000000000000000000000000000000000000000000000008e7f0000000000000000000000000000000000000000000000000000000000000000611e80565b9050600087611254578c611258565b6000195b60405163d505accf60e01b81529091506001600160a01b0383169063d505accf90611293903390309086908f908e908e908e9060040161330d565b600060405180830381600087803b1580156112ad57600080fd5b505af11580156112c1573d6000803e3d6000fd5b505050506112d38e8e8e8e8e8e610425565b909f909e509c50505050505050505050505050565b6000806000834281101561130e5760405162461bcd60e51b8152600401610449906131f4565b61131c8c8c8c8c8c8c61277d565b9094509250600061134e7f00000000000000000000000000000000000000000000000000000000000000008e8e611e80565b6040516323b872dd60e01b81529091506001600160a01b038e16906323b872dd9061138190339085908a906004016133b2565b6020604051808303816000875af11580156113a0573d6000803e3d6000fd5b505050506040513d601f19601f820116820180604052508101906113c49190613395565b506040516323b872dd60e01b81526001600160a01b038d16906323b872dd906113f5903390859089906004016133b2565b6020604051808303816000875af1158015611414573d6000803e3d6000fd5b505050506040513d601f19601f820116820180604052508101906114389190613395565b506040516335313c2160e11b81526001600160a01b038881166004830152821690636a627842906024016020604051808303816000875af1158015611481573d6000803e3d6000fd5b505050506040513d601f19601f820116820180604052508101906114a59190613486565b92505050985098509895505050505050565b6000610be88585857f0000000000000000000000000000000000000000000000000000000000000000866129a1565b6000806000834281101561150c5760405162461bcd60e51b8152600401610449906131f4565b61153a8a7f00000000000000000000000000000000000000000000000000000000000000008b348c8c61277d565b9094509250600061158c7f00000000000000000000000000000000000000000000000000000000000000008c7f0000000000000000000000000000000000000000000000000000000000000000611e80565b905061159a8b338388611f4c565b7f00000000000000000000000000000000000000000000000000000000000000006001600160a01b031663d0e30db0856040518263ffffffff1660e01b81526004016000604051808303818588803b1580156115f557600080fd5b505af1158015611609573d6000803e3d6000fd5b505060405163a9059cbb60e01b81526001600160a01b038581166004830152602482018990527f000000000000000000000000000000000000000000000000000000000000000016935063a9059cbb925060440190506020604051808303816000875af115801561167e573d6000803e3d6000fd5b505050506040513d601f19601f820116820180604052508101906116a29190613395565b6116ae576116ae612bdd565b6040516335313c2160e11b81526001600160a01b038881166004830152821690636a627842906024016020604051808303816000875af11580156116f6573d6000803e3d6000fd5b505050506040513d601f19601f8201168201806040525081019061171a9190613486565b92508334111561173757611737336117328634613241565b611baf565b505096509650969350505050565b606081428110156117685760405162461bcd60e51b8152600401610449906131f4565b7f00000000000000000000000000000000000000000000000000000000000000006001600160a01b0316868660008181106117a5576117a5613258565b90506020020160208101906117ba919061326e565b6001600160a01b0316146117e05760405162461bcd60e51b81526004016104499061328b565b61183e7f00000000000000000000000000000000000000000000000000000000000000008888888080602002602001604051908101604052809392919081815260200183836020028082843760009201919091525061228092505050565b9150348260008151811061185457611854613258565b6020026020010151111561187a5760405162461bcd60e51b81526004016104499061334e565b7f00000000000000000000000000000000000000000000000000000000000000006001600160a01b031663d0e30db0836000815181106118bc576118bc613258565b60200260200101516040518263ffffffff1660e01b81526004016000604051808303818588803b1580156118ef57600080fd5b505af1158015611903573d6000803e3d6000fd5b50505050507f00000000000000000000000000000000000000000000000000000000000000006001600160a01b031663a9059cbb61196e7f000000000000000000000000000000000000000000000000000000000000000089896000818110610e2657610e26613258565b8460008151811061198157611981613258565b60200260200101516040518363ffffffff1660e01b81526004016119ba9291906001600160a01b03929092168252602082015260400190565b6020604051808303816000875af11580156119d9573d6000803e3d6000fd5b505050506040513d601f19601f820116820180604052508101906119fd9190613395565b611a0957611a09612bdd565b611a4882878780806020026020016040519081016040528093929190818152602001838360200280828437600092019190915250899250612078915050565b81600081518110611a5b57611a5b613258565b6020026020010151341115610f2857610f283383600081518110611a8157611a81613258565b6020026020010151346117329190613241565b604080516001600160a01b038481166024830152604480830185905283518084039091018152606490920183526020820180516001600160e01b031663a9059cbb60e01b1790529151600092839290871691611af091906134cb565b6000604051808303816000865af19150503d8060008114611b2d576040519150601f19603f3d011682016040523d82523d6000602084013e611b32565b606091505b5091509150818015611b5c575080511580611b5c575080806020019051810190611b5c9190613395565b611ba85760405162461bcd60e51b815260206004820152601f60248201527f5472616e7366657248656c7065723a205452414e534645525f4641494c4544006044820152606401610449565b5050505050565b604080516000808252602082019092526001600160a01b038416908390604051611bd991906134cb565b60006040518083038185875af1925050503d8060008114611c16576040519150601f19603f3d011682016040523d82523d6000602084013e611c1b565b606091505b5050905080611c785760405162461bcd60e51b815260206004820152602360248201527f5472616e7366657248656c7065723a204554485f5452414e534645525f46414960448201526213115160ea1b6064820152608401610449565b505050565b6060600282511015611cd15760405162461bcd60e51b815260206004820152601e60248201527f556e697377617056324c6962726172793a20494e56414c49445f5041544800006044820152606401610449565b815167ffffffffffffffff811115611ceb57611ceb612d65565b604051908082528060200260200182016040528015611d14578160200160208202803683370190505b5090508281600081518110611d2b57611d2b613258565b60200260200101818152505060005b60018351611d489190613241565b811015611e7857600080611d9b87868581518110611d6857611d68613258565b602002602001015187866001611d7e91906134e7565b81518110611d8e57611d8e613258565b6020026020010151612b06565b91509150611e3b848481518110611db457611db4613258565b602002602001015183838a60405180604001604052808b8a81518110611ddc57611ddc613258565b60200260200101516001600160a01b03166001600160a01b031681526020018b8a6001611e0991906134e7565b81518110611e1957611e19613258565b60200260200101516001600160a01b03166001600160a01b03168152506129a1565b84611e478560016134e7565b81518110611e5757611e57613258565b60200260200101818152505050508080611e70906134ff565b915050611d3a565b509392505050565b6000806000611e8f8585612686565b91509150600060405180602001611ea590612bd0565b601f1982820381018352601f9091011660408181526bffffffffffffffffffffffff19606096871b811660208085019190915295871b81166034840152815180840360280181526048840183528051908701208451948701949094206001600160f81b031960688501529a90961b9095166069820152607d810191909152609d808201989098528351808203909801885260bd019092528551950194909420949350505050565b600080856001600160a01b03166323b872dd868686604051602401611f73939291906133b2565b6040516020818303038152906040529060e01b6020820180516001600160e01b038381831617835250505050604051611fac91906134cb565b6000604051808303816000865af19150503d8060008114611fe9576040519150601f19603f3d011682016040523d82523d6000602084013e611fee565b606091505b50915091508180156120185750805115806120185750808060200190518101906120189190613395565b6120705760405162461bcd60e51b8152602060048201526024808201527f5472616e7366657248656c7065723a205452414e534645525f46524f4d5f46416044820152631253115160e21b6064820152608401610449565b505050505050565b60005b600183516120899190613241565b81101561227a576000808483815181106120a5576120a5613258565b6020026020010151858460016120bb91906134e7565b815181106120cb576120cb613258565b60200260200101519150915060006120e38383612686565b5090506000876120f48660016134e7565b8151811061210457612104613258565b60200260200101519050600080836001600160a01b0316866001600160a01b03161461213257826000612136565b6000835b91509150600060028a5161214a9190613241565b881061215657886121a4565b6121a47f0000000000000000000000000000000000000000000000000000000000000000878c6121878c60026134e7565b8151811061219757612197613258565b6020026020010151611e80565b90506121d17f00000000000000000000000000000000000000000000000000000000000000008888611e80565b6001600160a01b031663022c0d9f84848460006040519080825280601f01601f19166020018201604052801561220e576020820181803683370190505b506040518563ffffffff1660e01b815260040161222e9493929190613518565b600060405180830381600087803b15801561224857600080fd5b505af115801561225c573d6000803e3d6000fd5b50505050505050505050508080612272906134ff565b91505061207b565b50505050565b60606002825110156122d45760405162461bcd60e51b815260206004820152601e60248201527f556e697377617056324c6962726172793a20494e56414c49445f5041544800006044820152606401610449565b815167ffffffffffffffff8111156122ee576122ee612d65565b604051908082528060200260200182016040528015612317578160200160208202803683370190505b50905082816001835161232a9190613241565b8151811061233a5761233a613258565b6020026020010181815250506000600183516123569190613241565b90505b8015611e785760008061239c8786612372600187613241565b8151811061238257612382613258565b6020026020010151878681518110611d8e57611d8e613258565b9150915061243c8484815181106123b5576123b5613258565b602002602001015183838a60405180604001604052808b8a815181106123dd576123dd613258565b60200260200101516001600160a01b03166001600160a01b031681526020018b8a600161240a91906134e7565b8151811061241a5761241a613258565b60200260200101516001600160a01b03166001600160a01b0316815250612479565b84612448600186613241565b8151811061245857612458613258565b6020026020010181815250505050808061247190613568565b915050612359565b60008086116124df5760405162461bcd60e51b815260206004820152602c60248201527f556e697377617056324c6962726172793a20494e53554646494349454e545f4f60448201526b155514155517d05353d5539560a21b6064820152608401610449565b6000851180156124ef5750600084115b61250b5760405162461bcd60e51b81526004016104499061357f565b600061251787876135c7565b612523906103e86135c7565b60208401518451604051636bc14b9b60e11b81526001600160a01b03928316600482015290821660248201529192506000919086169063d782973690604401602060405180830381865afa15801561257f573d6000803e3d6000fd5b505050506040513d601f19601f820116820180604052508101906125a39190613486565b6125af906103e8613241565b6125b98988613241565b6125c391906135c7565b90506125cf81836135e6565b6125da9060016134e7565b98975050505050505050565b60008084116126455760405162461bcd60e51b815260206004820152602560248201527f556e697377617056324c6962726172793a20494e53554646494349454e545f416044820152641353d5539560da1b6064820152608401610449565b6000831180156126555750600082115b6126715760405162461bcd60e51b81526004016104499061357f565b8261267c83866135c7565b610ffc91906135e6565b600080826001600160a01b0316846001600160a01b0316036126f85760405162461bcd60e51b815260206004820152602560248201527f556e697377617056324c6962726172793a204944454e544943414c5f41444452604482015264455353455360d81b6064820152608401610449565b826001600160a01b0316846001600160a01b03161061271857828461271b565b83835b90925090506001600160a01b0382166127765760405162461bcd60e51b815260206004820152601e60248201527f556e697377617056324c6962726172793a205a45524f5f4144445245535300006044820152606401610449565b9250929050565b60405163e6a4390560e01b81526001600160a01b0387811660048301528681166024830152600091829182917f00000000000000000000000000000000000000000000000000000000000000009091169063e6a4390590604401602060405180830381865afa1580156127f4573d6000803e3d6000fd5b505050506040513d601f19601f820116820180604052508101906128189190613608565b6001600160a01b0316036128bc576040516364e329cb60e11b81526001600160a01b03898116600483015288811660248301527f0000000000000000000000000000000000000000000000000000000000000000169063c9c65396906044016020604051808303816000875af1158015612896573d6000803e3d6000fd5b505050506040513d601f19601f820116820180604052508101906128ba9190613608565b505b6000806128ea7f00000000000000000000000000000000000000000000000000000000000000008b8b612b06565b915091508160001480156128fc575080155b1561290c57879350869250612994565b60006129198984846125e6565b905087811161294d57858110156129425760405162461bcd60e51b815260040161044990613440565b889450925082612992565b600061295a8984866125e6565b90508981111561296c5761296c612bdd565b8781101561298c5760405162461bcd60e51b8152600401610449906133fa565b94508793505b505b5050965096945050505050565b6000808611612a065760405162461bcd60e51b815260206004820152602b60248201527f556e697377617056324c6962726172793a20494e53554646494349454e545f4960448201526a1394155517d05353d5539560aa1b6064820152608401610449565b600085118015612a165750600084115b612a325760405162461bcd60e51b81526004016104499061357f565b81516020830151604051636bc14b9b60e11b81526001600160a01b039283166004820152908216602482015260009185169063d782973690604401602060405180830381865afa158015612a8a573d6000803e3d6000fd5b505050506040513d601f19601f82011682018060405250810190612aae9190613486565b612aba906103e8613241565b612ac490886135c7565b90506000612ad286836135c7565b9050600082612ae3896103e86135c7565b612aed91906134e7565b9050612af981836135e6565b9998505050505050505050565b6000806000612b158585612686565b509050600080612b26888888611e80565b6001600160a01b0316630902f1ac6040518163ffffffff1660e01b8152600401606060405180830381865afa158015612b63573d6000803e3d6000fd5b505050506040513d601f19601f82011682018060405250810190612b87919061363c565b506001600160701b031691506001600160701b03169150826001600160a01b0316876001600160a01b031614612bbe578082612bc1565b81815b90999098509650505050505050565b6125038061368d83390190565b634e487b7160e01b600052600160045260246000fd5b6001600160a01b0381168114612c0857600080fd5b50565b60008060008060008060c08789031215612c2457600080fd5b8635612c2f81612bf3565b95506020870135945060408701359350606087013592506080870135612c5481612bf3565b8092505060a087013590509295509295509295565b60008083601f840112612c7b57600080fd5b50813567ffffffffffffffff811115612c9357600080fd5b6020830191508360208260051b850101111561277657600080fd5b60008060008060008060a08789031215612cc757600080fd5b8635955060208701359450604087013567ffffffffffffffff811115612cec57600080fd5b612cf889828a01612c69565b9095509350506060870135612d0c81612bf3565b80925050608087013590509295509295509295565b6020808252825182820181905260009190848201906040850190845b81811015612d5957835183529284019291840191600101612d3d565b50909695505050505050565b634e487b7160e01b600052604160045260246000fd5b604051601f8201601f1916810167ffffffffffffffff81118282101715612da457612da4612d65565b604052919050565b60008060408385031215612dbf57600080fd5b8235915060208084013567ffffffffffffffff80821115612ddf57600080fd5b818601915086601f830112612df357600080fd5b813581811115612e0557612e05612d65565b8060051b9150612e16848301612d7b565b8181529183018401918481019089841115612e3057600080fd5b938501935b83851015612e5a5784359250612e4a83612bf3565b8282529385019390850190612e35565b8096505050505050509250929050565b8015158114612c0857600080fd5b803560ff81168114612e8957600080fd5b919050565b60008060008060008060008060008060006101608c8e031215612eb057600080fd5b8b35612ebb81612bf3565b9a5060208c0135612ecb81612bf3565b995060408c0135985060608c0135975060808c0135965060a08c0135612ef081612bf3565b955060c08c0135945060e08c0135612f0781612e6a565b9350612f166101008d01612e78565b92506101208c013591506101408c013590509295989b509295989b9093969950565b60008060008060a08587031215612f4e57600080fd5b8435935060208086013593506040860135925086607f870112612f7057600080fd5b6040516040810181811067ffffffffffffffff82111715612f9357612f93612d65565b6040528060a0880189811115612fa857600080fd5b606089015b81811015612fcd578035612fc081612bf3565b8352918401918401612fad565b5096999598509396509450505050565b600080600080600060808688031215612ff557600080fd5b85359450602086013567ffffffffffffffff81111561301357600080fd5b61301f88828901612c69565b909550935050604086013561303381612bf3565b949793965091946060013592915050565b60008060006060848603121561305957600080fd5b505081359360208301359350604090920135919050565b600080600080600080600060e0888a03121561308b57600080fd5b873561309681612bf3565b965060208801356130a681612bf3565b955060408801359450606088013593506080880135925060a08801356130cb81612bf3565b8092505060c0880135905092959891949750929550565b6000806000806000806000806000806101408b8d03121561310257600080fd5b8a3561310d81612bf3565b995060208b0135985060408b0135975060608b0135965060808b013561313281612bf3565b955060a08b0135945060c08b013561314981612e6a565b935061315760e08c01612e78565b92506101008b013591506101208b013590509295989b9194979a5092959850565b600080600080600080600080610100898b03121561319557600080fd5b88356131a081612bf3565b975060208901356131b081612bf3565b965060408901359550606089013594506080890135935060a0890135925060c08901356131dc81612bf3565b8092505060e089013590509295985092959890939650565b60208082526018908201527f556e69737761705632526f757465723a20455850495245440000000000000000604082015260600190565b634e487b7160e01b600052601160045260246000fd5b6000828210156132535761325361322b565b500390565b634e487b7160e01b600052603260045260246000fd5b60006020828403121561328057600080fd5b813561087d81612bf3565b6020808252601d908201527f556e69737761705632526f757465723a20494e56414c49445f50415448000000604082015260600190565b6020808252602b908201527f556e69737761705632526f757465723a20494e53554646494349454e545f4f5560408201526a1514155517d05353d5539560aa1b606082015260800190565b6001600160a01b0397881681529590961660208601526040850193909352606084019190915260ff16608083015260a082015260c081019190915260e00190565b60208082526027908201527f556e69737761705632526f757465723a204558434553534956455f494e50555460408201526617d05353d5539560ca1b606082015260800190565b6000602082840312156133a757600080fd5b815161087d81612e6a565b6001600160a01b039384168152919092166020820152604081019190915260600190565b600080604083850312156133e957600080fd5b505080516020909101519092909150565b60208082526026908201527f556e69737761705632526f757465723a20494e53554646494349454e545f415f604082015265105353d5539560d21b606082015260800190565b60208082526026908201527f556e69737761705632526f757465723a20494e53554646494349454e545f425f604082015265105353d5539560d21b606082015260800190565b60006020828403121561349857600080fd5b5051919050565b60005b838110156134ba5781810151838201526020016134a2565b8381111561227a5750506000910152565b600082516134dd81846020870161349f565b9190910192915050565b600082198211156134fa576134fa61322b565b500190565b6000600182016135115761351161322b565b5060010190565b84815283602082015260018060a01b038316604082015260806060820152600082518060808401526135518160a085016020870161349f565b601f01601f19169190910160a00195945050505050565b6000816135775761357761322b565b506000190190565b60208082526028908201527f556e697377617056324c6962726172793a20494e53554646494349454e545f4c604082015267495155494449545960c01b606082015260800190565b60008160001904831182151516156135e1576135e161322b565b500290565b60008261360357634e487b7160e01b600052601260045260246000fd5b500490565b60006020828403121561361a57600080fd5b815161087d81612bf3565b80516001600160701b0381168114612e8957600080fd5b60008060006060848603121561365157600080fd5b61365a84613625565b925061366860208501613625565b9150604084015163ffffffff8116811461368157600080fd5b80915050925092509256fe60806040526001600c5534801561001557600080fd5b50604080518082018252601281527120b631b432b6b4b1b0902628102a37b5b2b760711b6020918201528151808301835260018152603160f81b9082015281517f8b73c3c69bb8fe3d512ecc4cf759cc79239f7b179b0ffacaa9a75d522b39400f818301527f40920b916bb168e980de87dc75cf926625bdec954ee581ade2de1b14fdf06d3e818401527fc89efdaa54c0f20c7adf612882df0950f5a951637e0307cdcb4c672f298b8bc660608201524660808201523060a0808301919091528351808303909101815260c09091019092528151910120600355600580546001600160a01b031916331790556123f3806101106000396000f3fe608060405234801561001057600080fd5b50600436106101a95760003560e01c80636a627842116100f9578063ba9a7a5611610097578063d21220a711610071578063d21220a71461040d578063d505accf14610420578063dd62ed3e14610433578063fff6cae91461045e57600080fd5b8063ba9a7a56146103de578063bc25cf77146103e7578063c45a0155146103fa57600080fd5b80637ecebe00116100d35780637ecebe001461036157806389afcb441461038157806395d89b41146103a9578063a9059cbb146103cb57600080fd5b80636a6278421461032557806370a08231146103385780637464fc3d1461035857600080fd5b806323b872dd116101665780633644e515116101405780633644e515146102f7578063485cc955146103005780635909c0d5146103135780635a3d54931461031c57600080fd5b806323b872dd146102a357806330adf81f146102b6578063313ce567146102dd57600080fd5b8063022c0d9f146101ae57806306fdde03146101c35780630902f1ac1461020a578063095ea7b31461023e5780630dfe16811461026157806318160ddd1461028c575b600080fd5b6101c16101bc366004611fbf565b610466565b005b6101f46040518060400160405280601281526020017120b631b432b6b4b1b0902628102a37b5b2b760711b81525081565b6040516102019190612085565b60405180910390f35b610212610a79565b604080516001600160701b03948516815293909216602084015263ffffffff1690820152606001610201565b61025161024c3660046120b8565b610aa3565b6040519015158152602001610201565b600654610274906001600160a01b031681565b6040516001600160a01b039091168152602001610201565b61029560005481565b604051908152602001610201565b6102516102b13660046120e4565b610ab9565b6102957f6e71edae12b1b97f4d1f60370fef10105fa2faae0126114a169c64845d6126c981565b6102e5601281565b60405160ff9091168152602001610201565b61029560035481565b6101c161030e366004612125565b610b4e565b61029560095481565b610295600a5481565b61029561033336600461215e565b610bcd565b61029561034636600461215e565b60016020526000908152604090205481565b610295600b5481565b61029561036f36600461215e565b60046020526000908152604090205481565b61039461038f36600461215e565b61102b565b60408051928352602083019190915201610201565b6101f4604051806040016040528060038152602001620534c560ec1b81525081565b6102516103d93660046120b8565b611390565b6102956103e881565b6101c16103f536600461215e565b61139d565b600554610274906001600160a01b031681565b600754610274906001600160a01b031681565b6101c161042e36600461217b565b6114b0565b610295610441366004612125565b600260209081526000928352604080842090915290825290205481565b6101c16116c4565b600c546001146104915760405162461bcd60e51b8152600401610488906121f2565b60405180910390fd5b6000600c55841515806104a45750600084115b6104fe5760405162461bcd60e51b815260206004820152602560248201527f556e697377617056323a20494e53554646494349454e545f4f55545055545f416044820152641353d5539560da1b6064820152608401610488565b600080610509610a79565b5091509150816001600160701b03168710801561052e5750806001600160701b031686105b6105845760405162461bcd60e51b815260206004820152602160248201527f556e697377617056323a20494e53554646494349454e545f4c495155494449546044820152605960f81b6064820152608401610488565b60065460075460009182916001600160a01b039182169190811690891682148015906105c25750806001600160a01b0316896001600160a01b031614155b6106065760405162461bcd60e51b8152602060048201526015602482015274556e697377617056323a20494e56414c49445f544f60581b6044820152606401610488565b8a1561061757610617828a8d6117e8565b891561062857610628818a8c6117e8565b8615610695576040516304347a1760e21b81526001600160a01b038a16906310d1e85c906106629033908f908f908e908e9060040161221d565b600060405180830381600087803b15801561067c57600080fd5b505af1158015610690573d6000803e3d6000fd5b505050505b6040516370a0823160e01b81523060048201526001600160a01b038316906370a0823190602401602060405180830381865afa1580156106d9573d6000803e3d6000fd5b505050506040513d601f19601f820116820180604052508101906106fd9190612269565b6040516370a0823160e01b81523060048201529094506001600160a01b038216906370a0823190602401602060405180830381865afa158015610744573d6000803e3d6000fd5b505050506040513d601f19601f820116820180604052508101906107689190612269565b92505050600089856001600160701b03166107839190612298565b83116107905760006107ad565b6107a38a6001600160701b038716612298565b6107ad9084612298565b905060006107c48a6001600160701b038716612298565b83116107d15760006107ee565b6107e48a6001600160701b038716612298565b6107ee9084612298565b905060008211806107ff5750600081115b6108575760405162461bcd60e51b8152602060048201526024808201527f556e697377617056323a20494e53554646494349454e545f494e5055545f414d60448201526313d5539560e21b6064820152608401610488565b600554600654600754604051636bc14b9b60e11b81526001600160a01b0392831660048201529082166024820152600092919091169063d782973690604401602060405180830381865afa1580156108b3573d6000803e3d6000fd5b505050506040513d601f19601f820116820180604052508101906108d79190612269565b6108e190846122af565b6108ed866103e86122af565b6108f79190612298565b600554600754600654604051636bc14b9b60e11b81526001600160a01b039283166004820152908216602482015292935060009291169063d782973690604401602060405180830381865afa158015610954573d6000803e3d6000fd5b505050506040513d601f19601f820116820180604052508101906109789190612269565b61098290846122af565b61098e866103e86122af565b6109989190612298565b90506109b06001600160701b03808916908a166122af565b6109bd90620f42406122af565b6109c782846122af565b1015610a045760405162461bcd60e51b815260206004820152600c60248201526b556e697377617056323a204b60a01b6044820152606401610488565b5050610a1284848888611933565b60408051838152602081018390529081018c9052606081018b90526001600160a01b038a169033907fd78ad95fa46c994b6551d0da85fc275fe613ce37657fb8d5e3d130840159d8229060800160405180910390a350506001600c55505050505050505050565b6008546001600160701b0380821692600160701b830490911691600160e01b900463ffffffff1690565b6000610ab0338484611b0f565b50600192915050565b6001600160a01b038316600090815260026020908152604080832033845290915281205460001914610b39576001600160a01b0384166000908152600260209081526040808320338452909152902054610b14908390612298565b6001600160a01b03851660009081526002602090815260408083203384529091529020555b610b44848484611b71565b5060019392505050565b6005546001600160a01b03163314610b9f5760405162461bcd60e51b81526020600482015260146024820152732ab734b9bbb0b82b191d102327a92124a22222a760611b6044820152606401610488565b600680546001600160a01b039384166001600160a01b03199182161790915560078054929093169116179055565b6000600c54600114610bf15760405162461bcd60e51b8152600401610488906121f2565b6000600c81905580610c01610a79565b506006546040516370a0823160e01b81523060048201529294509092506000916001600160a01b03909116906370a0823190602401602060405180830381865afa158015610c53573d6000803e3d6000fd5b505050506040513d601f19601f82011682018060405250810190610c779190612269565b6007546040516370a0823160e01b81523060048201529192506000916001600160a01b03909116906370a0823190602401602060405180830381865afa158015610cc5573d6000803e3d6000fd5b505050506040513d601f19601f82011682018060405250810190610ce99190612269565b90506000610d006001600160701b03861684612298565b90506000610d176001600160701b03861684612298565b90506000610d258787611c19565b60008054919250819003610ef65760055460408051637cd07e4760e01b815290516000926001600160a01b031691637cd07e479160048083019260209291908290030181865afa158015610d7d573d6000803e3d6000fd5b505050506040513d601f19601f82011682018060405250810190610da191906122ce565b90506001600160a01b0381163303610e7257806001600160a01b03166340dc0e376040518163ffffffff1660e01b8152600401602060405180830381865afa158015610df1573d6000803e3d6000fd5b505050506040513d601f19601f82011682018060405250810190610e159190612269565b995060008a118015610e2957506000198a14155b610e6d5760405162461bcd60e51b81526020600482015260156024820152744261642064657369726564206c697175696469747960581b6044820152606401610488565b610ef0565b6001600160a01b03811615610ec25760405162461bcd60e51b815260206004820152601660248201527526bab9ba103737ba103430bb329036b4b3b930ba37b960511b6044820152606401610488565b6103e8610ed7610ed286886122af565b611de9565b610ee19190612298565b9950610ef060006103e8611e47565b50610f3d565b610f3a6001600160701b038916610f0d83876122af565b610f179190612301565b6001600160701b038916610f2b84876122af565b610f359190612301565b611ed8565b98505b60008911610f9e5760405162461bcd60e51b815260206004820152602860248201527f556e697377617056323a20494e53554646494349454e545f4c495155494449546044820152671657d3525395115160c21b6064820152608401610488565b610fa88a8a611e47565b610fb486868a8a611933565b8115610fdd57600854610fd9906001600160701b03600160701b8204811691166122af565b600b555b604080518581526020810185905233917f4c209b5fc8ad50758f13e2e1088ba56a560dff690a1c6fef26394f4c03821c4f910160405180910390a250506001600c5550949695505050505050565b600080600c546001146110505760405162461bcd60e51b8152600401610488906121f2565b6000600c81905580611060610a79565b506006546007546040516370a0823160e01b81523060048201529395509193506001600160a01b039081169291169060009083906370a0823190602401602060405180830381865afa1580156110ba573d6000803e3d6000fd5b505050506040513d601f19601f820116820180604052508101906110de9190612269565b6040516370a0823160e01b81523060048201529091506000906001600160a01b038416906370a0823190602401602060405180830381865afa158015611128573d6000803e3d6000fd5b505050506040513d601f19601f8201168201806040525081019061114c9190612269565b306000908152600160205260408120549192506111698888611c19565b6000549091508061117a86856122af565b6111849190612301565b9a508061119185856122af565b61119b9190612301565b995060008b1180156111ad575060008a115b61120a5760405162461bcd60e51b815260206004820152602860248201527f556e697377617056323a20494e53554646494349454e545f4c495155494449546044820152671657d0955493915160c21b6064820152608401610488565b6112143084611ef0565b61121f878d8d6117e8565b61122a868d8c6117e8565b6040516370a0823160e01b81523060048201526001600160a01b038816906370a0823190602401602060405180830381865afa15801561126e573d6000803e3d6000fd5b505050506040513d601f19601f820116820180604052508101906112929190612269565b6040516370a0823160e01b81523060048201529095506001600160a01b038716906370a0823190602401602060405180830381865afa1580156112d9573d6000803e3d6000fd5b505050506040513d601f19601f820116820180604052508101906112fd9190612269565b935061130b85858b8b611933565b811561133457600854611330906001600160701b03600160701b8204811691166122af565b600b555b604080518c8152602081018c90526001600160a01b038e169133917fdccd412f0b1252819cb1fd330b93224ca42612892bb3f4f789976e6d81936496910160405180910390a35050505050505050506001600c81905550915091565b6000610ab0338484611b71565b600c546001146113bf5760405162461bcd60e51b8152600401610488906121f2565b6000600c556006546007546008546040516370a0823160e01b81523060048201526001600160a01b03938416939092169161145e91849186916001600160701b03169083906370a08231906024015b602060405180830381865afa15801561142b573d6000803e3d6000fd5b505050506040513d601f19601f8201168201806040525081019061144f9190612269565b6114599190612298565b6117e8565b6008546040516370a0823160e01b81523060048201526114a69183918691600160701b90046001600160701b0316906001600160a01b038416906370a082319060240161140e565b50506001600c5550565b428410156114f55760405162461bcd60e51b8152602060048201526012602482015271155b9a5cddd85c158c8e881156141254915160721b6044820152606401610488565b6003546001600160a01b038816600090815260046020526040812080549192917f6e71edae12b1b97f4d1f60370fef10105fa2faae0126114a169c64845d6126c9918b918b918b91908761154883612315565b909155506040805160208101969096526001600160a01b0394851690860152929091166060840152608083015260a082015260c0810187905260e001604051602081830303815290604052805190602001206040516020016115c192919061190160f01b81526002810192909252602282015260420190565b60408051601f198184030181528282528051602091820120600080855291840180845281905260ff88169284019290925260608301869052608083018590529092509060019060a0016020604051602081039080840390855afa15801561162c573d6000803e3d6000fd5b5050604051601f1901519150506001600160a01b038116158015906116625750886001600160a01b0316816001600160a01b0316145b6116ae5760405162461bcd60e51b815260206004820152601c60248201527f556e697377617056323a20494e56414c49445f5349474e4154555245000000006044820152606401610488565b6116b9898989611b0f565b505050505050505050565b600c546001146116e65760405162461bcd60e51b8152600401610488906121f2565b6000600c556006546040516370a0823160e01b81523060048201526117e1916001600160a01b0316906370a0823190602401602060405180830381865afa158015611735573d6000803e3d6000fd5b505050506040513d601f19601f820116820180604052508101906117599190612269565b6007546040516370a0823160e01b81523060048201526001600160a01b03909116906370a0823190602401602060405180830381865afa1580156117a1573d6000803e3d6000fd5b505050506040513d601f19601f820116820180604052508101906117c59190612269565b6008546001600160701b0380821691600160701b900416611933565b6001600c55565b604080518082018252601981527f7472616e7366657228616464726573732c75696e74323536290000000000000060209182015281516001600160a01b0385811660248301526044808301869052845180840390910181526064909201845291810180516001600160e01b031663a9059cbb60e01b17905291516000928392871691611874919061232e565b6000604051808303816000865af19150503d80600081146118b1576040519150601f19603f3d011682016040523d82523d6000602084013e6118b6565b606091505b50915091508180156118e05750805115806118e05750808060200190518101906118e0919061234a565b61192c5760405162461bcd60e51b815260206004820152601a60248201527f556e697377617056323a205452414e534645525f4641494c45440000000000006044820152606401610488565b5050505050565b6001600160701b03841180159061195157506001600160701b038311155b6119935760405162461bcd60e51b8152602060048201526013602482015272556e697377617056323a204f564552464c4f5760681b6044820152606401610488565b60006119a46401000000004261236c565b6008549091506000906119c490600160e01b900463ffffffff1683612380565b905060008163ffffffff161180156119e457506001600160701b03841615155b80156119f857506001600160701b03831615155b15611a775763ffffffff8116611a2885600160701b6001600160701b038716025b6001600160e01b031690611f7c565b600980546001600160e01b03929092169290920201905563ffffffff8116611a5f84600160701b6001600160701b03881602611a19565b600a80546001600160e01b0392909216929092020190555b6008805463ffffffff8416600160e01b026001600160e01b036001600160701b03898116600160701b9081026001600160e01b03199095168c83161794909417918216831794859055604080519382169282169290921783529290930490911660208201527f1c411e9a96e071241c2f21f7726b17ae89e3cab4c78be50e062b03a9fffbbad1910160405180910390a1505050505050565b6001600160a01b0383811660008181526002602090815260408083209487168084529482529182902085905590518481527f8c5be1e5ebec7d5bd14f71427d1e84f3dd0314c0f7b2291e5b200ac8c7c3b92591015b60405180910390a3505050565b6001600160a01b038316600090815260016020526040902054611b95908290612298565b6001600160a01b038085166000908152600160205260408082209390935590841681522054611bc59082906123a5565b6001600160a01b0380841660008181526001602052604090819020939093559151908516907fddf252ad1be2c89b69c2b068fc378daa952ba7f163c4a11628f55a4df523b3ef90611b649085815260200190565b600080600560009054906101000a90046001600160a01b03166001600160a01b031663017e7e586040518163ffffffff1660e01b8152600401602060405180830381865afa158015611c6f573d6000803e3d6000fd5b505050506040513d601f19601f82011682018060405250810190611c9391906122ce565b90506000600560009054906101000a90046001600160a01b03166001600160a01b031663dddd882f6040518163ffffffff1660e01b8152600401602060405180830381865afa158015611cea573d6000803e3d6000fd5b505050506040513d601f19601f82011682018060405250810190611d0e9190612269565b90506001600160a01b03821615801590611d2757508015155b600b549093508315611dd4578015611dcf576000611d54610ed26001600160701b03808916908a166122af565b90506000611d6183611de9565b905080821115611dcc576000611d778284612298565b600054611d8491906122af565b9050600082611d94600188612298565b611d9e90866122af565b611da891906123a5565b90506000611db68284612301565b90508015611dc857611dc88882611e47565b5050505b50505b611de0565b8015611de0576000600b555b50505092915050565b60006003821115611e38575080600160028204015b81811015611e3257809150600281828581611e1b57611e1b6122eb565b040181611e2a57611e2a6122eb565b049050611dfe565b50919050565b8115611e42575060015b919050565b80600054611e5591906123a5565b60009081556001600160a01b038316815260016020526040902054611e7b9082906123a5565b6001600160a01b0383166000818152600160205260408082209390935591519091907fddf252ad1be2c89b69c2b068fc378daa952ba7f163c4a11628f55a4df523b3ef90611ecc9085815260200190565b60405180910390a35050565b6000818310611ee75781611ee9565b825b9392505050565b6001600160a01b038216600090815260016020526040902054611f14908290612298565b6001600160a01b03831660009081526001602052604081209190915554611f3c908290612298565b60009081556040518281526001600160a01b038416907fddf252ad1be2c89b69c2b068fc378daa952ba7f163c4a11628f55a4df523b3ef90602001611ecc565b60006001600160701b0382166001600160e01b03841681611f9f57611f9f6122eb565b049392505050565b6001600160a01b0381168114611fbc57600080fd5b50565b600080600080600060808688031215611fd757600080fd5b85359450602086013593506040860135611ff081611fa7565b9250606086013567ffffffffffffffff8082111561200d57600080fd5b818801915088601f83011261202157600080fd5b81358181111561203057600080fd5b89602082850101111561204257600080fd5b9699959850939650602001949392505050565b60005b83811015612070578181015183820152602001612058565b8381111561207f576000848401525b50505050565b60208152600082518060208401526120a4816040850160208701612055565b601f01601f19169190910160400192915050565b600080604083850312156120cb57600080fd5b82356120d681611fa7565b946020939093013593505050565b6000806000606084860312156120f957600080fd5b833561210481611fa7565b9250602084013561211481611fa7565b929592945050506040919091013590565b6000806040838503121561213857600080fd5b823561214381611fa7565b9150602083013561215381611fa7565b809150509250929050565b60006020828403121561217057600080fd5b8135611ee981611fa7565b600080600080600080600060e0888a03121561219657600080fd5b87356121a181611fa7565b965060208801356121b181611fa7565b95506040880135945060608801359350608088013560ff811681146121d557600080fd5b9699959850939692959460a0840135945060c09093013592915050565b602080825260119082015270155b9a5cddd85c158c8e881313d0d2d151607a1b604082015260600190565b60018060a01b038616815284602082015283604082015260806060820152816080820152818360a0830137600081830160a090810191909152601f909201601f19160101949350505050565b60006020828403121561227b57600080fd5b5051919050565b634e487b7160e01b600052601160045260246000fd5b6000828210156122aa576122aa612282565b500390565b60008160001904831182151516156122c9576122c9612282565b500290565b6000602082840312156122e057600080fd5b8151611ee981611fa7565b634e487b7160e01b600052601260045260246000fd5b600082612310576123106122eb565b500490565b60006001820161232757612327612282565b5060010190565b60008251612340818460208701612055565b9190910192915050565b60006020828403121561235c57600080fd5b81518015158114611ee957600080fd5b60008261237b5761237b6122eb565b500690565b600063ffffffff8381169083168181101561239d5761239d612282565b039392505050565b600082198211156123b8576123b8612282565b50019056fea2646970667358221220ac593c3a7f42b5956c25994a15918db6bc28d3133b7a3f9164b053ba922abc6e64736f6c634300080d0033a2646970667358221220d2d459badfdcd4a59eeb46f9628d2fd979eb74a726653ed7e9a2779bcd2ba53f64736f6c634300080d0033",
    "linkReferences": {}
  }
}