{
  "abi": [
    {
      "inputs": [
        {
          "internalType": "address",
          "name": "_feeToSetter",
          "type": "address"
        }
      ],
      "stateMutability": "nonpayable",
      "type": "constructor"
    },
    {
      "anonymous": false,
      "inputs": [
        {
          "indexed": true,
          "internalType": "address",
          "name": "token0",
          "type": "address"
        },
        {
          "indexed": true,
          "internalType": "address",
          "name": "token1",
          "type": "address"
        },
        {
          "indexed": false,
          "internalType": "address",
          "name": "pair",
          "type": "address"
        },
        {
          "indexed": false,
          "internalType": "uint256",
          "name": "",
          "type": "uint256"
        }
      ],
      "name": "PairCreated",
      "type": "event"
    },
    {
      "anonymous": false,
      "inputs": [
        {
          "indexed": true,
          "internalType": "address",
          "name": "token0",
          "type": "address"
        },
        {
          "indexed": true,
          "internalType": "address",
          "name": "token1",
          "type": "address"
        },
        {
          "indexed": false,
          "internalType": "uint256",
          "name": "",
          "type": "uint256"
        }
      ],
      "name": "SwapFeeSet",
      "type": "event"
    },
    {
      "anonymous": false,
      "inputs": [
        {
          "indexed": false,
          "internalType": "uint256",
          "name": "",
          "type": "uint256"
        }
      ],
      "name": "TradingFeeMintSet",
      "type": "event"
    },
    {
      "inputs": [
        {
          "internalType": "uint256",
          "name": "",
          "type": "uint256"
        }
      ],
      "name": "allPairs",
      "outputs": [
        {
          "internalType": "address",
          "name": "",
          "type": "address"
        }
      ],
      "stateMutability": "view",
      "type": "function"
    },
    {
      "inputs": [],
      "name": "allPairsLength",
      "outputs": [
        {
          "internalType": "uint256",
          "name": "",
          "type": "uint256"
        }
      ],
      "stateMutability": "view",
      "type": "function"
    },
    {
      "inputs": [
        {
          "internalType": "address",
          "name": "tokenA",
          "type": "address"
        },
        {
          "internalType": "address",
          "name": "tokenB",
          "type": "address"
        }
      ],
      "name": "createPair",
      "outputs": [
        {
          "internalType": "address",
          "name": "pair",
          "type": "address"
        }
      ],
      "stateMutability": "nonpayable",
      "type": "function"
    },
    {
      "inputs": [],
      "name": "feeTo",
      "outputs": [
        {
          "internalType": "address",
          "name": "",
          "type": "address"
        }
      ],
      "stateMutability": "view",
      "type": "function"
    },
    {
      "inputs": [],
      "name": "feeToSetter",
      "outputs": [
        {
          "internalType": "address",
          "name": "",
          "type": "address"
        }
      ],
      "stateMutability": "view",
      "type": "function"
    },
    {
      "inputs": [
        {
          "internalType": "address",
          "name": "",
          "type": "address"
        },
        {
          "internalType": "address",
          "name": "",
          "type": "address"
        }
      ],
      "name": "getPair",
      "outputs": [
        {
          "internalType": "address",
          "name": "",
          "type": "address"
        }
      ],
      "stateMutability": "view",
      "type": "function"
    },
    {
      "inputs": [],
      "name": "migrator",
      "outputs": [
        {
          "internalType": "address",
          "name": "",
          "type": "address"
        }
      ],
      "stateMutability": "view",
      "type": "function"
    },
    {
      "inputs": [],
      "name": "mintFeeToDenominator",
      "outputs": [
        {
          "internalType": "uint256",
          "name": "",
          "type": "uint256"
        }
      ],
      "stateMutability": "view",
      "type": "function"
    },
    {
      "inputs": [],
      "name": "pairCodeHash",
      "outputs": [
        {
          "internalType": "bytes32",
          "name": "",
          "type": "bytes32"
        }
      ],
      "stateMutability": "pure",
      "type": "function"
    },
    {
      "inputs": [
        {
          "internalType": "address",
          "name": "_feeTo",
          "type": "address"
        }
      ],
      "name": "setFeeTo",
      "outputs": [],
      "stateMutability": "nonpayable",
      "type": "function"
    },
    {
      "inputs": [
        {
          "internalType": "address",
          "name": "_feeToSetter",
          "type": "address"
        }
      ],
      "name": "setFeeToSetter",
      "outputs": [],
      "stateMutability": "nonpayable",
      "type": "function"
    },
    {
      "inputs": [
        {
          "internalType": "address",
          "name": "_migrator",
          "type": "address"
        }
      ],
      "name": "setMigrator",
      "outputs": [],
      "stateMutability": "nonpayable",
      "type": "function"
    },
    {
      "inputs": [
        {
          "internalType": "address",
          "name": "tokenA",
          "type": "address"
        },
        {
          "internalType": "address",
          "name": "tokenB",
          "type": "address"
        },
        {
          "internalType": "uint256",
          "name": "buyFee",
          "type": "uint256"
        },
        {
          "internalType": "uint256",
          "name": "sellFee",
          "type": "uint256"
        }
      ],
      "name": "setPairFee",
      "outputs": [],
      "stateMutability": "nonpayable",
      "type": "function"
    },
    {
      "inputs": [
        {
          "internalType": "uint256",
          "name": "denominator",
          "type": "uint256"
        }
      ],
      "name": "setTradingFeeMint",
      "outputs": [],
      "stateMutability": "nonpayable",
      "type": "function"
    },
    {
      "inputs": [
        {
          "internalType": "address",
          "name": "",
          "type": "address"
        },
        {
          "internalType": "address",
          "name": "",
          "type": "address"
        }
      ],
      "name": "swapFee",
      "outputs": [
        {
          "internalType": "uint256",
          "name": "",
          "type": "uint256"
        }
      ],
      "stateMutability": "view",
      "type": "function"
    }
  ],
  "bytecode": {
    "object": "0x608060405234801561001057600080fd5b50604051612fe0380380612fe083398101604081905261002f91610054565b600180546001600160a01b0319166001600160a01b0392909216919091179055610084565b60006020828403121561006657600080fd5b81516001600160a01b038116811461007d57600080fd5b9392505050565b612f4d806100936000396000f3fe608060405234801561001057600080fd5b50600436106100f55760003560e01c80637eca6c8411610097578063d782973611610066578063d7829736146101de578063dddd882f14610209578063e6a4390514610212578063f46901ed1461024657600080fd5b80637eca6c841461019d5780639aab9248146101b0578063a2e74af6146101b8578063c9c65396146101cb57600080fd5b80631e3dd18b116100d35780631e3dd18b1461015257806323cf311814610165578063574f2ba3146101785780637cd07e471461018a57600080fd5b8063017e7e58146100fa57806304c83ad41461012a578063094b74151461013f575b600080fd5b60005461010d906001600160a01b031681565b6040516001600160a01b0390911681526020015b60405180910390f35b61013d61013836600461091a565b610259565b005b60015461010d906001600160a01b031681565b61010d61016036600461091a565b6102ab565b61013d61017336600461094f565b6102d5565b6006545b604051908152602001610121565b60025461010d906001600160a01b031681565b61013d6101ab366004610971565b61032a565b61017c610533565b61013d6101c636600461094f565b610565565b61010d6101d93660046109b3565b6105b1565b61017c6101ec3660046109b3565b600560209081526000928352604080842090915290825290205481565b61017c60035481565b61010d6102203660046109b3565b60046020908152600092835260408084209091529082529020546001600160a01b031681565b61013d61025436600461094f565b6108c1565b6001546001600160a01b0316331461027057600080fd5b60038190556040518181527f0e176f6f15cb130b59becdf80d22f193b61d25cc4980073df91ea86e9a985c4e9060200160405180910390a150565b600681815481106102bb57600080fd5b6000918252602090912001546001600160a01b0316905081565b6001546001600160a01b031633146103085760405162461bcd60e51b81526004016102ff906109e6565b60405180910390fd5b600280546001600160a01b0319166001600160a01b0392909216919091179055565b6001546001600160a01b0316331461034157600080fd5b826001600160a01b0316846001600160a01b0316036103a25760405162461bcd60e51b815260206004820152601e60248201527f556e697377617056323a204944454e544943414c5f414444524553534553000060448201526064016102ff565b6001600160a01b038416158015906103c257506001600160a01b03831615155b6104085760405162461bcd60e51b8152602060048201526017602482015276556e697377617056323a205a45524f5f4144445245535360481b60448201526064016102ff565b6014821080156104185750601481105b6104585760405162461bcd60e51b815260206004820152601160248201527008e82b074408c8a8abea89e9ebe90928e9607b1b60448201526064016102ff565b826001600160a01b0316846001600160a01b0316111561047457905b6001600160a01b038481166000818152600560208181526040808420958916808552958252808420889055918152818320848452815291819020859055518581527fac1269bde3b89adfd8b55738926f5e641ca6f7ba68b3f1f497b18b224b5d5da2910160405180910390a3836001600160a01b0316836001600160a01b03167fac1269bde3b89adfd8b55738926f5e641ca6f7ba68b3f1f497b18b224b5d5da28360405161052591815260200190565b60405180910390a350505050565b6000604051806020016105459061090d565b6020820181038252601f19601f8201166040525080519060200120905090565b6001546001600160a01b0316331461058f5760405162461bcd60e51b81526004016102ff906109e6565b600180546001600160a01b0319166001600160a01b0392909216919091179055565b6001546000906001600160a01b031633146105cb57600080fd5b816001600160a01b0316836001600160a01b03160361062c5760405162461bcd60e51b815260206004820152601e60248201527f556e697377617056323a204944454e544943414c5f414444524553534553000060448201526064016102ff565b600080836001600160a01b0316856001600160a01b03161061064f578385610652565b84845b90925090506001600160a01b0382166106a75760405162461bcd60e51b8152602060048201526017602482015276556e697377617056323a205a45524f5f4144445245535360481b60448201526064016102ff565b6001600160a01b038281166000908152600460209081526040808320858516845290915290205416156107155760405162461bcd60e51b8152602060048201526016602482015275556e697377617056323a20504149525f45584953545360501b60448201526064016102ff565b6000604051806020016107279061090d565b601f1982820381018352601f9091011660408190526bffffffffffffffffffffffff19606086811b8216602084015285901b166034820152909150600090604801604051602081830303815290604052805190602001209050808251602084016000f560405163485cc95560e01b81526001600160a01b03868116600483015285811660248301529196509086169063485cc95590604401600060405180830381600087803b1580156107d957600080fd5b505af11580156107ed573d6000803e3d6000fd5b505050506001600160a01b0384811660008181526004602081815260408084208987168086529083528185208054978d166001600160a01b031998891681179091559383528185208686528352818520805488168517905560068054600181018255958190527ff652222313e28459528d920b65115c16c04f3efc82aaedc97be59f3f377c0d3f9095018054909716841790965592548351928352908201527f0d3648bd0f6ba80134a33ba9275ac585d9d315f0ad8355cddefde31afa28d0e9910160405180910390a35050505092915050565b6001546001600160a01b031633146108eb5760405162461bcd60e51b81526004016102ff906109e6565b600080546001600160a01b0319166001600160a01b0392909216919091179055565b61250380610a1583390190565b60006020828403121561092c57600080fd5b5035919050565b80356001600160a01b038116811461094a57600080fd5b919050565b60006020828403121561096157600080fd5b61096a82610933565b9392505050565b6000806000806080858703121561098757600080fd5b61099085610933565b935061099e60208601610933565b93969395505050506040820135916060013590565b600080604083850312156109c657600080fd5b6109cf83610933565b91506109dd60208401610933565b90509250929050565b6020808252601490820152732ab734b9bbb0b82b191d102327a92124a22222a760611b60408201526060019056fe60806040526001600c5534801561001557600080fd5b50604080518082018252601281527120b631b432b6b4b1b0902628102a37b5b2b760711b6020918201528151808301835260018152603160f81b9082015281517f8b73c3c69bb8fe3d512ecc4cf759cc79239f7b179b0ffacaa9a75d522b39400f818301527f40920b916bb168e980de87dc75cf926625bdec954ee581ade2de1b14fdf06d3e818401527fc89efdaa54c0f20c7adf612882df0950f5a951637e0307cdcb4c672f298b8bc660608201524660808201523060a0808301919091528351808303909101815260c09091019092528151910120600355600580546001600160a01b031916331790556123f3806101106000396000f3fe608060405234801561001057600080fd5b50600436106101a95760003560e01c80636a627842116100f9578063ba9a7a5611610097578063d21220a711610071578063d21220a71461040d578063d505accf14610420578063dd62ed3e14610433578063fff6cae91461045e57600080fd5b8063ba9a7a56146103de578063bc25cf77146103e7578063c45a0155146103fa57600080fd5b80637ecebe00116100d35780637ecebe001461036157806389afcb441461038157806395d89b41146103a9578063a9059cbb146103cb57600080fd5b80636a6278421461032557806370a08231146103385780637464fc3d1461035857600080fd5b806323b872dd116101665780633644e515116101405780633644e515146102f7578063485cc955146103005780635909c0d5146103135780635a3d54931461031c57600080fd5b806323b872dd146102a357806330adf81f146102b6578063313ce567146102dd57600080fd5b8063022c0d9f146101ae57806306fdde03146101c35780630902f1ac1461020a578063095ea7b31461023e5780630dfe16811461026157806318160ddd1461028c575b600080fd5b6101c16101bc366004611fbf565b610466565b005b6101f46040518060400160405280601281526020017120b631b432b6b4b1b0902628102a37b5b2b760711b81525081565b6040516102019190612085565b60405180910390f35b610212610a79565b604080516001600160701b03948516815293909216602084015263ffffffff1690820152606001610201565b61025161024c3660046120b8565b610aa3565b6040519015158152602001610201565b600654610274906001600160a01b031681565b6040516001600160a01b039091168152602001610201565b61029560005481565b604051908152602001610201565b6102516102b13660046120e4565b610ab9565b6102957f6e71edae12b1b97f4d1f60370fef10105fa2faae0126114a169c64845d6126c981565b6102e5601281565b60405160ff9091168152602001610201565b61029560035481565b6101c161030e366004612125565b610b4e565b61029560095481565b610295600a5481565b61029561033336600461215e565b610bcd565b61029561034636600461215e565b60016020526000908152604090205481565b610295600b5481565b61029561036f36600461215e565b60046020526000908152604090205481565b61039461038f36600461215e565b61102b565b60408051928352602083019190915201610201565b6101f4604051806040016040528060038152602001620534c560ec1b81525081565b6102516103d93660046120b8565b611390565b6102956103e881565b6101c16103f536600461215e565b61139d565b600554610274906001600160a01b031681565b600754610274906001600160a01b031681565b6101c161042e36600461217b565b6114b0565b610295610441366004612125565b600260209081526000928352604080842090915290825290205481565b6101c16116c4565b600c546001146104915760405162461bcd60e51b8152600401610488906121f2565b60405180910390fd5b6000600c55841515806104a45750600084115b6104fe5760405162461bcd60e51b815260206004820152602560248201527f556e697377617056323a20494e53554646494349454e545f4f55545055545f416044820152641353d5539560da1b6064820152608401610488565b600080610509610a79565b5091509150816001600160701b03168710801561052e5750806001600160701b031686105b6105845760405162461bcd60e51b815260206004820152602160248201527f556e697377617056323a20494e53554646494349454e545f4c495155494449546044820152605960f81b6064820152608401610488565b60065460075460009182916001600160a01b039182169190811690891682148015906105c25750806001600160a01b0316896001600160a01b031614155b6106065760405162461bcd60e51b8152602060048201526015602482015274556e697377617056323a20494e56414c49445f544f60581b6044820152606401610488565b8a1561061757610617828a8d6117e8565b891561062857610628818a8c6117e8565b8615610695576040516304347a1760e21b81526001600160a01b038a16906310d1e85c906106629033908f908f908e908e9060040161221d565b600060405180830381600087803b15801561067c57600080fd5b505af1158015610690573d6000803e3d6000fd5b505050505b6040516370a0823160e01b81523060048201526001600160a01b038316906370a0823190602401602060405180830381865afa1580156106d9573d6000803e3d6000fd5b505050506040513d601f19601f820116820180604052508101906106fd9190612269565b6040516370a0823160e01b81523060048201529094506001600160a01b038216906370a0823190602401602060405180830381865afa158015610744573d6000803e3d6000fd5b505050506040513d601f19601f820116820180604052508101906107689190612269565b92505050600089856001600160701b03166107839190612298565b83116107905760006107ad565b6107a38a6001600160701b038716612298565b6107ad9084612298565b905060006107c48a6001600160701b038716612298565b83116107d15760006107ee565b6107e48a6001600160701b038716612298565b6107ee9084612298565b905060008211806107ff5750600081115b6108575760405162461bcd60e51b8152602060048201526024808201527f556e697377617056323a20494e53554646494349454e545f494e5055545f414d60448201526313d5539560e21b6064820152608401610488565b600554600654600754604051636bc14b9b60e11b81526001600160a01b0392831660048201529082166024820152600092919091169063d782973690604401602060405180830381865afa1580156108b3573d6000803e3d6000fd5b505050506040513d601f19601f820116820180604052508101906108d79190612269565b6108e190846122af565b6108ed866103e86122af565b6108f79190612298565b600554600754600654604051636bc14b9b60e11b81526001600160a01b039283166004820152908216602482015292935060009291169063d782973690604401602060405180830381865afa158015610954573d6000803e3d6000fd5b505050506040513d601f19601f820116820180604052508101906109789190612269565b61098290846122af565b61098e866103e86122af565b6109989190612298565b90506109b06001600160701b03808916908a166122af565b6109bd90620f42406122af565b6109c782846122af565b1015610a045760405162461bcd60e51b815260206004820152600c60248201526b556e697377617056323a204b60a01b6044820152606401610488565b5050610a1284848888611933565b60408051838152602081018390529081018c9052606081018b90526001600160a01b038a169033907fd78ad95fa46c994b6551d0da85fc275fe613ce37657fb8d5e3d130840159d8229060800160405180910390a350506001600c55505050505050505050565b6008546001600160701b0380821692600160701b830490911691600160e01b900463ffffffff1690565b6000610ab0338484611b0f565b50600192915050565b6001600160a01b038316600090815260026020908152604080832033845290915281205460001914610b39576001600160a01b0384166000908152600260209081526040808320338452909152902054610b14908390612298565b6001600160a01b03851660009081526002602090815260408083203384529091529020555b610b44848484611b71565b5060019392505050565b6005546001600160a01b03163314610b9f5760405162461bcd60e51b81526020600482015260146024820152732ab734b9bbb0b82b191d102327a92124a22222a760611b6044820152606401610488565b600680546001600160a01b039384166001600160a01b03199182161790915560078054929093169116179055565b6000600c54600114610bf15760405162461bcd60e51b8152600401610488906121f2565b6000600c81905580610c01610a79565b506006546040516370a0823160e01b81523060048201529294509092506000916001600160a01b03909116906370a0823190602401602060405180830381865afa158015610c53573d6000803e3d6000fd5b505050506040513d601f19601f82011682018060405250810190610c779190612269565b6007546040516370a0823160e01b81523060048201529192506000916001600160a01b03909116906370a0823190602401602060405180830381865afa158015610cc5573d6000803e3d6000fd5b505050506040513d601f19601f82011682018060405250810190610ce99190612269565b90506000610d006001600160701b03861684612298565b90506000610d176001600160701b03861684612298565b90506000610d258787611c19565b60008054919250819003610ef65760055460408051637cd07e4760e01b815290516000926001600160a01b031691637cd07e479160048083019260209291908290030181865afa158015610d7d573d6000803e3d6000fd5b505050506040513d601f19601f82011682018060405250810190610da191906122ce565b90506001600160a01b0381163303610e7257806001600160a01b03166340dc0e376040518163ffffffff1660e01b8152600401602060405180830381865afa158015610df1573d6000803e3d6000fd5b505050506040513d601f19601f82011682018060405250810190610e159190612269565b995060008a118015610e2957506000198a14155b610e6d5760405162461bcd60e51b81526020600482015260156024820152744261642064657369726564206c697175696469747960581b6044820152606401610488565b610ef0565b6001600160a01b03811615610ec25760405162461bcd60e51b815260206004820152601660248201527526bab9ba103737ba103430bb329036b4b3b930ba37b960511b6044820152606401610488565b6103e8610ed7610ed286886122af565b611de9565b610ee19190612298565b9950610ef060006103e8611e47565b50610f3d565b610f3a6001600160701b038916610f0d83876122af565b610f179190612301565b6001600160701b038916610f2b84876122af565b610f359190612301565b611ed8565b98505b60008911610f9e5760405162461bcd60e51b815260206004820152602860248201527f556e697377617056323a20494e53554646494349454e545f4c495155494449546044820152671657d3525395115160c21b6064820152608401610488565b610fa88a8a611e47565b610fb486868a8a611933565b8115610fdd57600854610fd9906001600160701b03600160701b8204811691166122af565b600b555b604080518581526020810185905233917f4c209b5fc8ad50758f13e2e1088ba56a560dff690a1c6fef26394f4c03821c4f910160405180910390a250506001600c5550949695505050505050565b600080600c546001146110505760405162461bcd60e51b8152600401610488906121f2565b6000600c81905580611060610a79565b506006546007546040516370a0823160e01b81523060048201529395509193506001600160a01b039081169291169060009083906370a0823190602401602060405180830381865afa1580156110ba573d6000803e3d6000fd5b505050506040513d601f19601f820116820180604052508101906110de9190612269565b6040516370a0823160e01b81523060048201529091506000906001600160a01b038416906370a0823190602401602060405180830381865afa158015611128573d6000803e3d6000fd5b505050506040513d601f19601f8201168201806040525081019061114c9190612269565b306000908152600160205260408120549192506111698888611c19565b6000549091508061117a86856122af565b6111849190612301565b9a508061119185856122af565b61119b9190612301565b995060008b1180156111ad575060008a115b61120a5760405162461bcd60e51b815260206004820152602860248201527f556e697377617056323a20494e53554646494349454e545f4c495155494449546044820152671657d0955493915160c21b6064820152608401610488565b6112143084611ef0565b61121f878d8d6117e8565b61122a868d8c6117e8565b6040516370a0823160e01b81523060048201526001600160a01b038816906370a0823190602401602060405180830381865afa15801561126e573d6000803e3d6000fd5b505050506040513d601f19601f820116820180604052508101906112929190612269565b6040516370a0823160e01b81523060048201529095506001600160a01b038716906370a0823190602401602060405180830381865afa1580156112d9573d6000803e3d6000fd5b505050506040513d601f19601f820116820180604052508101906112fd9190612269565b935061130b85858b8b611933565b811561133457600854611330906001600160701b03600160701b8204811691166122af565b600b555b604080518c8152602081018c90526001600160a01b038e169133917fdccd412f0b1252819cb1fd330b93224ca42612892bb3f4f789976e6d81936496910160405180910390a35050505050505050506001600c81905550915091565b6000610ab0338484611b71565b600c546001146113bf5760405162461bcd60e51b8152600401610488906121f2565b6000600c556006546007546008546040516370a0823160e01b81523060048201526001600160a01b03938416939092169161145e91849186916001600160701b03169083906370a08231906024015b602060405180830381865afa15801561142b573d6000803e3d6000fd5b505050506040513d601f19601f8201168201806040525081019061144f9190612269565b6114599190612298565b6117e8565b6008546040516370a0823160e01b81523060048201526114a69183918691600160701b90046001600160701b0316906001600160a01b038416906370a082319060240161140e565b50506001600c5550565b428410156114f55760405162461bcd60e51b8152602060048201526012602482015271155b9a5cddd85c158c8e881156141254915160721b6044820152606401610488565b6003546001600160a01b038816600090815260046020526040812080549192917f6e71edae12b1b97f4d1f60370fef10105fa2faae0126114a169c64845d6126c9918b918b918b91908761154883612315565b909155506040805160208101969096526001600160a01b0394851690860152929091166060840152608083015260a082015260c0810187905260e001604051602081830303815290604052805190602001206040516020016115c192919061190160f01b81526002810192909252602282015260420190565b60408051601f198184030181528282528051602091820120600080855291840180845281905260ff88169284019290925260608301869052608083018590529092509060019060a0016020604051602081039080840390855afa15801561162c573d6000803e3d6000fd5b5050604051601f1901519150506001600160a01b038116158015906116625750886001600160a01b0316816001600160a01b0316145b6116ae5760405162461bcd60e51b815260206004820152601c60248201527f556e697377617056323a20494e56414c49445f5349474e4154555245000000006044820152606401610488565b6116b9898989611b0f565b505050505050505050565b600c546001146116e65760405162461bcd60e51b8152600401610488906121f2565b6000600c556006546040516370a0823160e01b81523060048201526117e1916001600160a01b0316906370a0823190602401602060405180830381865afa158015611735573d6000803e3d6000fd5b505050506040513d601f19601f820116820180604052508101906117599190612269565b6007546040516370a0823160e01b81523060048201526001600160a01b03909116906370a0823190602401602060405180830381865afa1580156117a1573d6000803e3d6000fd5b505050506040513d601f19601f820116820180604052508101906117c59190612269565b6008546001600160701b0380821691600160701b900416611933565b6001600c55565b604080518082018252601981527f7472616e7366657228616464726573732c75696e74323536290000000000000060209182015281516001600160a01b0385811660248301526044808301869052845180840390910181526064909201845291810180516001600160e01b031663a9059cbb60e01b17905291516000928392871691611874919061232e565b6000604051808303816000865af19150503d80600081146118b1576040519150601f19603f3d011682016040523d82523d6000602084013e6118b6565b606091505b50915091508180156118e05750805115806118e05750808060200190518101906118e0919061234a565b61192c5760405162461bcd60e51b815260206004820152601a60248201527f556e697377617056323a205452414e534645525f4641494c45440000000000006044820152606401610488565b5050505050565b6001600160701b03841180159061195157506001600160701b038311155b6119935760405162461bcd60e51b8152602060048201526013602482015272556e697377617056323a204f564552464c4f5760681b6044820152606401610488565b60006119a46401000000004261236c565b6008549091506000906119c490600160e01b900463ffffffff1683612380565b905060008163ffffffff161180156119e457506001600160701b03841615155b80156119f857506001600160701b03831615155b15611a775763ffffffff8116611a2885600160701b6001600160701b038716025b6001600160e01b031690611f7c565b600980546001600160e01b03929092169290920201905563ffffffff8116611a5f84600160701b6001600160701b03881602611a19565b600a80546001600160e01b0392909216929092020190555b6008805463ffffffff8416600160e01b026001600160e01b036001600160701b03898116600160701b9081026001600160e01b03199095168c83161794909417918216831794859055604080519382169282169290921783529290930490911660208201527f1c411e9a96e071241c2f21f7726b17ae89e3cab4c78be50e062b03a9fffbbad1910160405180910390a1505050505050565b6001600160a01b0383811660008181526002602090815260408083209487168084529482529182902085905590518481527f8c5be1e5ebec7d5bd14f71427d1e84f3dd0314c0f7b2291e5b200ac8c7c3b92591015b60405180910390a3505050565b6001600160a01b038316600090815260016020526040902054611b95908290612298565b6001600160a01b038085166000908152600160205260408082209390935590841681522054611bc59082906123a5565b6001600160a01b0380841660008181526001602052604090819020939093559151908516907fddf252ad1be2c89b69c2b068fc378daa952ba7f163c4a11628f55a4df523b3ef90611b649085815260200190565b600080600560009054906101000a90046001600160a01b03166001600160a01b031663017e7e586040518163ffffffff1660e01b8152600401602060405180830381865afa158015611c6f573d6000803e3d6000fd5b505050506040513d601f19601f82011682018060405250810190611c9391906122ce565b90506000600560009054906101000a90046001600160a01b03166001600160a01b031663dddd882f6040518163ffffffff1660e01b8152600401602060405180830381865afa158015611cea573d6000803e3d6000fd5b505050506040513d601f19601f82011682018060405250810190611d0e9190612269565b90506001600160a01b03821615801590611d2757508015155b600b549093508315611dd4578015611dcf576000611d54610ed26001600160701b03808916908a166122af565b90506000611d6183611de9565b905080821115611dcc576000611d778284612298565b600054611d8491906122af565b9050600082611d94600188612298565b611d9e90866122af565b611da891906123a5565b90506000611db68284612301565b90508015611dc857611dc88882611e47565b5050505b50505b611de0565b8015611de0576000600b555b50505092915050565b60006003821115611e38575080600160028204015b81811015611e3257809150600281828581611e1b57611e1b6122eb565b040181611e2a57611e2a6122eb565b049050611dfe565b50919050565b8115611e42575060015b919050565b80600054611e5591906123a5565b60009081556001600160a01b038316815260016020526040902054611e7b9082906123a5565b6001600160a01b0383166000818152600160205260408082209390935591519091907fddf252ad1be2c89b69c2b068fc378daa952ba7f163c4a11628f55a4df523b3ef90611ecc9085815260200190565b60405180910390a35050565b6000818310611ee75781611ee9565b825b9392505050565b6001600160a01b038216600090815260016020526040902054611f14908290612298565b6001600160a01b03831660009081526001602052604081209190915554611f3c908290612298565b60009081556040518281526001600160a01b038416907fddf252ad1be2c89b69c2b068fc378daa952ba7f163c4a11628f55a4df523b3ef90602001611ecc565b60006001600160701b0382166001600160e01b03841681611f9f57611f9f6122eb565b049392505050565b6001600160a01b0381168114611fbc57600080fd5b50565b600080600080600060808688031215611fd757600080fd5b85359450602086013593506040860135611ff081611fa7565b9250606086013567ffffffffffffffff8082111561200d57600080fd5b818801915088601f83011261202157600080fd5b81358181111561203057600080fd5b89602082850101111561204257600080fd5b9699959850939650602001949392505050565b60005b83811015612070578181015183820152602001612058565b8381111561207f576000848401525b50505050565b60208152600082518060208401526120a4816040850160208701612055565b601f01601f19169190910160400192915050565b600080604083850312156120cb57600080fd5b82356120d681611fa7565b946020939093013593505050565b6000806000606084860312156120f957600080fd5b833561210481611fa7565b9250602084013561211481611fa7565b929592945050506040919091013590565b6000806040838503121561213857600080fd5b823561214381611fa7565b9150602083013561215381611fa7565b809150509250929050565b60006020828403121561217057600080fd5b8135611ee981611fa7565b600080600080600080600060e0888a03121561219657600080fd5b87356121a181611fa7565b965060208801356121b181611fa7565b95506040880135945060608801359350608088013560ff811681146121d557600080fd5b9699959850939692959460a0840135945060c09093013592915050565b602080825260119082015270155b9a5cddd85c158c8e881313d0d2d151607a1b604082015260600190565b60018060a01b038616815284602082015283604082015260806060820152816080820152818360a0830137600081830160a090810191909152601f909201601f19160101949350505050565b60006020828403121561227b57600080fd5b5051919050565b634e487b7160e01b600052601160045260246000fd5b6000828210156122aa576122aa612282565b500390565b60008160001904831182151516156122c9576122c9612282565b500290565b6000602082840312156122e057600080fd5b8151611ee981611fa7565b634e487b7160e01b600052601260045260246000fd5b600082612310576123106122eb565b500490565b60006001820161232757612327612282565b5060010190565b60008251612340818460208701612055565b9190910192915050565b60006020828403121561235c57600080fd5b81518015158114611ee957600080fd5b60008261237b5761237b6122eb565b500690565b600063ffffffff8381169083168181101561239d5761239d612282565b039392505050565b600082198211156123b8576123b8612282565b50019056fea2646970667358221220ac593c3a7f42b5956c25994a15918db6bc28d3133b7a3f9164b053ba922abc6e64736f6c634300080d0033a264697066735822122068d21a5451d79fe84c12b58da1857c0cfe782ccc4c3d31e07823ac6c166eb28964736f6c634300080d0033",
    "linkReferences": {}
  }
}